:100000000C942A000C9434000C9434000C943400AA
:100010000C9434000C9434000C9434000C94340090
:100020000C9434000C9434000C9434000C94340080
:100030000C9434000C9434000C9434000C94340070
:100040000C9434000C9434000C9434000C94340060
:100050000C94340011241FBECFE5D8E0DEBFCDBF25
:100060000E9436000C94AC010C940000EF92FF92B9
:100070001F93CF93DF9380E00E94E00081E090E047
:1000800060E070E00E94B8008FEF87BB18BA8D9ACD
:1000900081EC8FBD8AE08EBD10E080E9E82E81E022
:1000A000F82E1AC01ABD18BB80E060E00E947C01E7
:1000B000812F90E063E070E00E941E0184EF91E0E8
:1000C000F7013197F1F70197D9F781E090E060E00F
:1000D00070E00E94B8001F5F1F3F21F7CFEFD0E014
:1000E000CABDC8BB80E061E00E947C01CE0163E034
:1000F00070E00E941E0184EF91E0F7013197F1F763
:100100000197D9F781E090E060E070E00E94B800CC
:100110002197CC2329F710E0C5CF84B3807F84BB1F
:10012000959A969882E08A95F1F722E035E0979AC1
:10013000822F8A95F1F783B38295807F922F9A95CB
:10014000F1F79798932F9A95F1F7979A922F9A959E
:10015000F1F793B3922F9A95F1F79798932F9A9579
:10016000F1F787FDE4CF959884B38F6084BB089541
:10017000282F662311F4969801C0969A82E08A95FA
:10018000F1F7979A85B3922F92959F70807F982B65
:1001900095BB95E0892F8A95F1F79798892F8A95D5
:1001A000F1F7979A85B32F70807F822B85BB892FBB
:1001B0008A95F1F797989A95F1F70E948D00089526
:1001C0001F93182F8CE291E020E931E0F90131977B
:1001D000F1F70197D9F784B38F6084BB8F9A8E9A19
:1001E0008D9A85B3807F85BB97989598969881E086
:1001F0008A95F1F7979AA99A85E0982F9A95F1F741
:1002000097988A95F1F70E948D00812F8C6060E0AD
:100210000E94B80088E260E00E94B8001F91089533
:10022000CF93DF93EC0104C061E00E94B8002196F7
:1002300088818823C9F7DF91CF910895EF92FF92CB
:100240000F931F93DF93CF9300D000D00F92CDB7C1
:10025000DEB79C018B01FE01319685E0DF011D9226
:100260008A95E9F7FE0135960DC0C9016AE070E094
:100270000E9485018083C9016AE070E00E948501C7
:100280009B0131972115310581F7BFEF0F3F1B0708
:1002900079F420E030E0AE014F5F5F4F02C02F5F86
:1002A0003F4FFA01E20FF31F80818823C1F304C09E
:1002B00025E030E0201B310B7E010894E11CF11C8D
:1002C000E20EF31E890109C0F70181917F01805D73
:1002D00061E00E94B8000F5F1F4F05301105A4F3C5
:1002E0000F900F900F900F900F90CF91DF911F9173
:1002F0000F91FF90EF900895883230F4611180647F
:10030000806860E00E94B800089597FB092E0726D8
:100310000AD077FD04D00CD006D000201AF47095D6
:1003200061957F4F0895F6F7909581959F4F0895B9
:10033000AA1BBB1B51E107C0AA1FBB1FA617B7070B
:1003400010F0A61BB70B881F991F5A95A9F7809527
:0C0350009095BC01CD010895F894FFCFFA
:00000001FF
