:100000000C942A000C9434000C9434000C943400AA
:100010000C9434000C9434000C9434000C94340090
:100020000C9434000C9434000C9434000C94340080
:100030000C9434000C9434000C9434000C94340070
:100040000C9434000C9434000C9434000C94340060
:100050000C94340011241FBECFE5D8E0DEBFCDBF25
:100060000E9442000C9458000C94000083B78966EB
:1000700083BFBB9A08958CBF089580E89CE00197E8
:10008000F1F7089583B7896683BFBB9A20E040E803
:100090005CE005C02CBFCA010197F1F72F5F2F3F2D
:1000A000C9F72CBFCA010197F1F72150D1F7F7CF5B
:0400B000F894FFCFF2
:00000001FF
