:100000000C942A000C9434000C9434000C943400AA
:100010000C9434000C9434000C9434000C94340090
:100020000C9434000C9434000C9434000C94340080
:100030000C9434000C9434000C9434000C94340070
:100040000C9434000C9434000C9434000C94340060
:100050000C94340011241FBECFE5D8E0DEBFCDBF25
:100060000E9442000C9499010C94000083B78966A9
:1000700083BFBB9A08958CBF089580E89CE00197E8
:10008000F1F708951F93CF93DF9380E00E94D20091
:1000900083B7896683BFBB9A0E946A0081E090E0C3
:1000A00060E070E00E94AA00C0E8DCE080E090E040
:1000B0000E946F00182F8CBF80E060E00E946901F1
:1000C000812F90E063E070E00E940B01CE01019768
:1000D000F1F7ECCF80E487B987E886B908953898BE
:1000E00039983A983B983C9897B18F71892B87B98A
:1000F000369A349BFECF349A24B135B1C9010895A4
:1001000084B3807F84BB959A969881E08A95F1F7B5
:1001100021E0979A822F8A95F1F783B38295807FA9
:10012000922F9A95F1F79798922F9A95F1F7979ABF
:10013000922F9A95F1F793B3922F9A95F1F797989A
:10014000922F9A95F1F787FDE4CF959884B38F604D
:1001500084BB0895382F662311F4969801C0969AAF
:1001600021E0822F8A95F1F7979A85B3932F929584
:100170009F70807F982B95BB822F8A95F1F7979877
:10018000822F8A95F1F7979A85B33F70807F832BF2
:1001900085BB822F8A95F1F797982A95F1F70E94EF
:1001A000800008951F93182F8BE39BE20197F1F7CE
:1001B00084B38F6084BB8F9A8E9A8D9A85B3807F2B
:1001C00085BB97989598969881E0982F9A95F1F726
:1001D000979AA99A982F9A95F1F797988A95F1F797
:1001E0000E948000812F8C6060E00E94AA0088E25B
:1001F00060E00E94AA001F910895CF93DF93EC0165
:1002000004C061E00E94AA00219688818823C9F772
:10021000DF91CF910895EF92FF920F931F93DF9399
:10022000CF9300D000D00F92CDB7DEB79C018B01E9
:10023000FE01319685E0DF011D928A95E9F7FE0106
:1002400035960DC0C9016AE070E00E94720180839A
:10025000C9016AE070E00E9472019B01319721158B
:10026000310581F7BFEF0F3F1B0779F420E030E045
:10027000AE014F5F5F4F02C02F5F3F4FFA01E20FA9
:10028000F31F80818823C1F304C025E030E0201BE8
:10029000310B7E010894E11CF11CE20EF31E890172
:1002A00009C0F70181917F01805D61E00E94AA0091
:1002B0000F5F1F4F05301105A4F30F900F900F90A3
:1002C0000F900F90CF91DF911F910F91FF90EF90C2
:1002D0000895883230F461118064806860E00E9483
:1002E000AA00089597FB092E07260AD077FD04D0AF
:1002F0000CD006D000201AF4709561957F4F0895B8
:10030000F6F7909581959F4F0895AA1BBB1B51E16D
:1003100007C0AA1FBB1FA617B70710F0A61BB70B75
:10032000881F991F5A95A9F780959095BC01CD011A
:060330000895F894FFCFD0
:00000001FF
